:1000000045C0000061C000005FC000005DC000008E
:100010005BC0000059C0000057C0000055C0000080
:1000200053C0000051C000004FC000004DC0000090
:100030004BC0000049C0000047C0000045C00000A0
:1000400043C0000041C000003FC000003DC00000B0
:100050003BC0000039C0000037C0000035C00000C0
:1000600033C0000031C000002FC000002DC00000D0
:100070002BC0000029C0000027C0000025C00000E0
:1000800023C0000021C000001FC0000011241FBEBB
:10009000CFEFD0E1DEBFCDBF15E0A0E0B1E0E0E3FF
:1000A000F3E200E00BBF02C007900D92A835B10744
:1000B000D9F729E0A8E5B5E001C01D92AA37B2073B
:1000C000E1F72AD10C9496119BCF8091580590911D
:1000D0005905892B39F44FED52E060E080E00E9431
:1000E000B80B06C048EE52E060E080E00E94B80B1A
:1000F00080915A0590915B05892B39F44FED52E0C0
:1001000060E081E00E94B80B06C04DEF52E060E075
:1001100081E00E94B80B80915C0590915D05892B70
:1001200039F44FED52E060E082E00E94B80B06C067
:1001300047E053E060E082E00E94B80B80915E05EA
:1001400090915F05892B39F44FED52E060E083E038
:100150000E94B80B06C047E153E060E083E00E94D4
:10016000B80B8091600590916105892B39F44FEDB2
:1001700052E060E084E00E94B80B06C041E253E028
:1001800060E084E00E94B80B809162059091630565
:10019000892B39F44FED52E060E085E00E94B80B06
:1001A00006C048E253E060E085E00E94B80B809111
:1001B000640590916505892B39F44FED52E060E0BC
:1001C00086E00E94B80B06C04BE353E060E086E097
:1001D0000E94B80B8091660590916705892B39F4D0
:1001E0004FED52E060E087E00E94B80B06C044E4A7
:1001F00053E060E087E00E94B80B43E553E063E121
:1002000087E00C94B80B0895CF93DF9346E553E055
:1002100060E080E00E94B80B64E080E00E94750B13
:10022000C8E6D5E0888199810E94C30C4CE553E073
:100230006AE080E00E94B80B6EE080E00E94750BDF
:100240008A819B810E94C30C42E653E060E081E01A
:100250000E94B80B64E081E00E94750B8C819D8147
:100260000E94C30C48E653E06AE081E00E94B80BAC
:100270006EE081E00E94750B8E819F810E94C30C0D
:10028000DF91CF9108958FEF8ABB1BBA87BB88BBE4
:1002900090EF94BB15BA11BA12BA82B913B8109282
:1002A000610010926200089516B817B880E888B906
:1002B00083EC86B90895F894E6DF0E946C0BF4DFB6
:1002C0007894089580E0B2D2909375058093740578
:1002D0008FE39CE90197F1F700C00000809174055D
:1002E00090917505089593EC96B9806487B9369A14
:1002F00034990EC080E090E044B125B130E0322F57
:100300002227240F311D820F931F349BF5CF02C08B
:1003100080E090E016B80895CEDF0E945A0BD2DF3D
:100320000E943D110E94B70A0F2EF0E7EF2EF5E074
:10033000FF2EF02D0FE010E00F2EFEEF7F2EF02DA0
:10034000AA24A394B12C0F2EF8E6CF2EF5E0DF2ED1
:10035000F02D0F2EF8E58F2EF5E09F2EF02D662460
:100360006A94CFEFDFEFCF3F2FEFD20709F04EC0F7
:100370000E943F0D83E0B7DF9C0136952795A5E2EB
:10038000B9E40E94E4109695879590937305809345
:10039000720584E0A8DF9695879596958795969542
:1003A000879590937105809370053FEF89EF90E0FA
:1003B000315080409040E1F700C00000809172050C
:1003C00090917305893EE3E09E0778F00E949B0AB6
:1003D0000E945A0B3BD2FFEF21EE34E0F150204057
:1003E0003040E1F700C0000053C04E9708F07AC0DB
:1003F0000E94A60A0E945A0B8FEF91EEE4E0815012
:100400009040E040E1F700C0000005C0CE3FFFEFA4
:10041000DF0709F0F5C159DE83E065DF9C01369501
:100420002795A5E2B9E40E94E410969587959093EC
:1004300073058093720584E056DF969587959695AF
:1004400087959695879590937105809370052FEF0A
:1004500033EC89E0215030408040E1F700C00000DB
:100460008091720590917305893E934008F4DBC139
:100470000E94A60A0E945A0BFFEF29E638E1F150CC
:1004800020403040E1F700C00000CFEFDFEF19C19E
:10049000C8E6D5E00E943A11B8010E94D1108996B1
:1004A00089939993CE15DF05A9F70E945A0BACDE0C
:1004B0000E94540D0E94F50E78BA80B3C1E0D0E0DE
:1004C0008F718B3109F48AC038F48F3009F4D5C0AC
:1004D000873109F4ADC047CF8D3109F455C08E3155
:1004E00041F141CFCE010197089708F0EAC08CDEB8
:1004F0000E94540D0E94F50ECE010197F50102C035
:10050000EE0FFF1F8A95E2F7CF01809588BB80B37D
:100510008F718B3109F464C038F48F3009F4AFC0A7
:10052000873109F487C0CDC08D3181F18E3119F04A
:10053000C8C0C1E0D0E00E94AC0A0E94730E86D110
:100540000E94FE0EF6018081918103979183808342
:10055000828193810696938382838481958102961A
:1005600095838483868197810197978386834CDE68
:10057000FFEF27EA31E6F15020403040E1F700C0BC
:10058000000064D121969DC0C1E0D0E0E5D70E9473
:100590008D0E5CD10E94080FF60180819181029638
:1005A0009183808382819381029793838283848164
:1005B0009581029795838483868197810696978398
:1005C000868322DEFFEF27EA31E6F15020403040FB
:1005D000E1F700C000003AD1219673C0C1E0D0E03D
:1005E000BBD70E94A70E32D10E94110FF601808165
:1005F0009181069691838083828193810197938371
:1006000082838481958102969583848386819781F4
:10061000029797838683F8DDFFEF27EA31E6F150F2
:1006200020403040E1F700C0000010D1219649C0C1
:10063000C1E0D0E091D70E94C10E08D10E941B0FEB
:10064000F6018081918102979183808384819581D5
:100650000696958384838681978103969783868304
:10066000D3DDFFEF27EA31E6F15020403040E1F7DB
:1006700000C00000EBD0219624C0C1E0D0E06CD7D0
:100680000E94DB0EE3D00E94240FF6018281938149
:1006900003969383828384819581059795838483D0
:1006A00086819781029797838683AEDDFFEF27EAE5
:1006B00031E6F15020403040E1F700C00000C6D0E4
:1006C0002196C930D10571F418BAF4D78FEF97EAA3
:1006D000E1E681509040E040E1F700C000000E9458
:1006E000730D04C0CA30D10509F03DCEF6018081FA
:1006F000918189339105ACF0228133812933310511
:1007000084F024813581293331055CF026813781DD
:100710002933310534F0F401B182A0820E942D0FFB
:100720005DC08E31910534F4F401B382A2820E943F
:10073000640F54C08C34910534F0F401B582A48266
:100740000E949A0F4BC0F6018281938189329105F4
:1007500064F0448155814C3151050CF055C0F401D1
:10076000B782A6820E94C90F39C0F601268137815F
:100770002C33310574F0448155814C315105D4F04E
:100780004434510534F4F401B186A0860E94061069
:1007900025C0CC977CF0F601848195818C31910540
:1007A0004CF08434910564F4F401B386A2860E946F
:1007B000301014C0F60184819581843491054CF089
:1007C0002333310534F0F401B586A4860E94641009
:1007D00005C0F401B786A6860E948E106BD74EE640
:1007E00053E060E084E0C4D7FFEF2FE433ECF15036
:1007F00020403040E1F700C0000067BA5BD7B1CDC0
:10080000209709F445CE6ECEF601268137812C3330
:1008100031050CF0B5CF04C0F60184819581C1CFBC
:10082000CC97D4F7C7CFCEEFDFEF4BCF93EC96B991
:10083000806487B9369A349BFECF24B185B116B84F
:1008400090E0982F8827820F911D0895CF93DF9312
:10085000D6E10AC06C2F8D2F0E94460CCF5FCF339C
:10086000C9F7DF5FD03411F0C0E0F4CFDF91CF9152
:100870000895CF93CCE16C2F86E1A6D76C2F8FE241
:10088000A3D7CF5FC832B9F7C0E264E18C2F9CD701
:100890006FE28C2F99D7CF5FC832B9F766E187E155
:1008A00093D767E187E190D768E187E18DD76AE167
:1008B00087E18AD76BE187E187D768E287E184D750
:1008C00069E287E181D76BE287E17ED76CE287E15D
:1008D0007BD76DE287E178D765E188E175D768E17C
:1008E00088E172D769E188E16FD76AE188E16CD766
:1008F00069E288E169D76AE288E166D76BE288E15C
:1009000063D76CE288E160D76EE288E15DD764E18D
:1009100089E15AD768E189E157D76CE289E154D778
:100920006FE289E151D764E18AE14ED767E18AE15C
:100930004BD76DE28AE148D760E38AE145D763E1AE
:100940008BE142D766E18BE13FD76EE28BE13CD78A
:1009500061E38BE139D762E18CE136D766E18CE166
:1009600033D76EE28CE130D762E38CE12DD761E1C1
:100970008DE12AD764E18DE127D765E18DE124D7A8
:100980006EE28DE121D76FE28DE11ED762E38DE14A
:100990001BD762E18EE118D763E18EE115D765E1DF
:1009A0008EE112D76EE28EE10FD760E38EE10CD7B5
:1009B00061E38EE109D765E18FE106D76EE28FE151
:1009C00003D765E188E200D76EE288E2FDD665E1F3
:1009D00089E2FAD66EE289E2F7D666E18AE2F4D6D7
:1009E0006DE28AE2F1D667E18BE2EED66CE28BE251
:1009F000EBD668E18CE2E8D66BE28CE2E5D669E101
:100A00008DE2E2D66AE28DE2DFD66AE18EE2DCD6E2
:100A10006BE18EE2D9D668E28EE2D6D669E28EE24A
:100A2000D3D6CF910895CF9367E18DE2CDD66CE216
:100A30008DE2CAD666E18EE2C7D66DE28EE2C4D6FA
:100A400066E18FE2C1D66DE28FE2BED666E180E359
:100A5000BBD66DE280E3B8D665E181E3B5D665E14A
:100A600082E3B2D665E183E3AFD66EE281E3ACD632
:100A70006EE282E3A9D66EE283E3A6D6C4E364E124
:100A80008C2FA2D66FE28C2F9FD6CF5FC833B9F7D9
:100A900063E18C2F99D660E38C2F96D6CF5FCD3350
:100AA000B9F764E18DE390D665E18DE38DD66EE212
:100AB0008DE38AD66FE28DE387D666E18EE384D636
:100AC00067E18EE381D66CE28EE37ED66DE28EE343
:100AD0007BD6CAE368E18C2F77D66BE28C2F74D675
:100AE000CF5FCE33B9F7C6E369E18C2F6DD66AE2EA
:100AF0008C2F6AD6CF5FCA33B9F7CF910895CF93C1
:100B0000C4E16C2F8DE260D6CF5FC831D1F7CCE263
:100B10006C2F8DE259D6CF5FC033D1F761E18EE201
:100B200053D662E18EE250D663E18EE24DD660E3A9
:100B30008EE24AD661E38EE247D662E38EE244D685
:100B400060E18FE241D663E38FE23ED66FE08C2F07
:100B50003BD664E38C2F38D6CF5FC333B9F76EE052
:100B60008C2F32D665E38C2F2FD6CF5FC633B9F7E3
:100B70006FE086E329D664E386E326D660E187E367
:100B800023D661E187E320D662E387E31DD663E3E2
:100B900087E31AD662E185E317D662E186E314D6CD
:100BA00061E385E311D661E386E30ED663E184E376
:100BB0000BD660E384E308D664E183E305D665E100
:100BC00083E302D666E183E3FFD56DE283E3FCD5E0
:100BD0006EE283E3F9D56FE283E3F6D567E182E362
:100BE000F3D568E182E3F0D569E182E3EDD56AE20D
:100BF00082E3EAD56BE282E3E7D56CE282E3E4D5F7
:100C0000CF910895CF9368E18EE2DED56BE28EE25C
:100C1000DBD567E18FE2D8D56CE28FE2D5D5C0E3B2
:100C200066E18C2FD1D56DE28C2FCED5CF5FC63348
:100C3000B9F767E186E3C8D56CE286E3C5D567E11D
:100C400087E3C2D56CE287E3BFD5C8E16C2F88E3A8
:100C5000BBD5CF5FC132D1F7C4E26C2F88E3B4D5E6
:100C6000CF5FCC32D1F7C4E362E28C2FADD563E223
:100C70008C2FAAD5CF5FC833B9F7CDE16C2F83E3B2
:100C8000A3D5CF5FC232D1F7C4E26C2F83E39CD5EA
:100C9000CF5FC932D1F7CF910895CF93C8E36AE10E
:100CA0008C2F92D569E28C2F8FD5CF5FC034B9F7E6
:100CB000CF910895CF93C2E36AE18C2F85D569E285
:100CC0008C2F82D5CF5FC034B9F7CF910895CF93E1
:100CD000C9E36AE18C2F78D569E28C2F75D5CF5F97
:100CE000C034B9F7CF910895CF93CCE16C2F8FE149
:100CF0006BD5CF5FC032D1F7C6E26C2F8FE164D5E0
:100D0000CF5FCA32D1F76BE180E25ED560E280E26C
:100D10005BD565E280E258D56AE280E255D5C1E252
:100D20006C2F83E251D5CF5FC532D1F761E284E207
:100D30004BD561E285E248D564E284E245D564E2C0
:100D400085E242D562E286E23FD563E286E23CD5A7
:100D5000CF910895CF93DF93CBE16C2F8DE134D504
:100D6000CF5FCF31D1F761E28DE12ED5CBE16C2F92
:100D70008FE12AD56C2F81E227D5CF5FC132B9F739
:100D80006EE180E221D5DBE16D2F82E21DD5DF5FD0
:100D9000DF31D1F76BE183E217D56CE183E214D543
:100DA0006DE183E211D564E28DE10ED5D6E26D2FBF
:100DB0008DE10AD5DF5FDB32D1F7D5E26D2F8FE110
:100DC00003D56D2F81E200D5DF5FDB32B9F767E233
:100DD00080E2FAD4D7E26D2F82E2F6D4DF5FDB3215
:100DE000D1F768E283E2F0D469E283E2EDD46AE20B
:100DF00083E2EAD46C2F85E2E7D46C2F87E2E4D457
:100E0000CF5FC532B9F760E286E2DED465E286E202
:100E1000DBD4DF91CF910895CF936FE18FE1D4D4EC
:100E200060E28FE1D1D46EE18EE1CED46DE18EE14E
:100E3000CBD46EE180E2C8D46DE180E2C5D46CE130
:100E40008DE1C2D46BE18DE1BFD46CE181E2BCD411
:100E50006BE181E2B9D465E28FE1B6D466E28FE15D
:100E6000B3D467E28EE1B0D468E28EE1ADD467E23C
:100E700080E2AAD468E280E2A7D469E28DE1A4D43A
:100E80006AE28DE1A1D469E281E29ED46AE281E264
:100E90009BD4CEE16C2F83E297D4CF5FC832D1F7D9
:100EA0006EE184E291D467E284E28ED46EE185E261
:100EB0008BD467E285E288D46FE186E285D466E26E
:100EC00086E282D46FE187E27FD466E287E27CD457
:100ED00060E288E279D465E288E276D4C1E26C2FE0
:100EE00089E272D4CF5FC532D1F7CF910895CF9305
:100EF000CCE16C2F8FE168D4CF5FC032D1F7C6E26E
:100F00006C2F8FE161D4CF5FCA32D1F76BE180E201
:100F10005BD460E280E258D465E280E255D46AE2B4
:100F200080E252D4CAE16C2F82E24ED46C2F83E26D
:100F30004BD4CF5FCD31B9F7C8E26C2F82E244D4F5
:100F40006C2F83E241D4CF5FCB32B9F7C1E26C2F73
:100F500083E23AD4CF5FC532D1F761E284E234D480
:100F600061E285E231D464E284E22ED464E285E277
:100F70002BD462E286E228D463E286E225D4CF91C4
:100F80000895CF93CCE16C2F81E21ED4CF5FC032A5
:100F9000D1F7C6E26C2F81E217D4CF5FCA32D1F706
:100FA0006BE180E211D460E280E20ED465E280E27F
:100FB0000BD46AE280E208D4C1E26C2F83E204D44D
:100FC000CF5FC532D1F761E284E2FED361E285E210
:100FD000FBD364E284E2F8D364E285E2F5D362E213
:100FE00086E2F2D363E286E2EFD3CF910895CF9306
:100FF000CBE16C2F8DE1E8D3CF5FCF31D1F76AE140
:101000008EE1E2D36FE18EE1DFD36DE18FE1DCD3DE
:10101000CAE16C2F81E2D8D3CF5FC032D1F7C6E2EC
:101020006C2F8DE1D1D3CF5FCA32D1F765E28EE16B
:10103000CBD36AE28EE1C8D367E28FE1C5D3C5E2C4
:101040006C2F81E2C1D3CF5FCB32D1F7C1E26C2FDD
:1010500083E2BAD3CF5FC632D1F761E284E2B4D380
:1010600065E284E2B1D362E285E2AED364E285E276
:10107000ABD363E286E2A8D3CF910895CF93DF93F9
:10108000C4E06C2F8BE1A0D36C2F82E29DD3CF5FA5
:10109000C830B9F763E08CE197D368E08CE194D372
:1010A00062E08DE191D361E08EE18ED361E08FE16A
:1010B0008BD3DDE169E08D2F87D3DF5FD132D1F7AC
:1010C00068E081E281D363E08FE17ED363E080E278
:1010D0007BD363E081E278D364E08EE175D365E091
:1010E0008DE172D366E08DE16FD367E08EE16CD362
:1010F00067E08FE169D366E080E266D367E08AE269
:1011000063D36DE08AE260D36C2F89E25DD36C2FEC
:1011100082E35AD3CF5FCD30B9F769E08BE254D385
:101120006AE08BE251D36BE08BE24ED36EE08BE250
:101130004BD3CCE26FE08C2F47D3CF5FC033D1F7D6
:1011400068E08CE241D36CE08CE23ED367E08DE254
:101150003BD36AE08DE238D36DE08DE235D366E0B3
:101160008EE232D366E08FE22FD366E080E32CD3A9
:1011700069E08EE229D36DE08EE226D369E08FE24A
:1011800023D36CE08FE220D36AE080E31DD36BE0D1
:1011900080E31AD36EE080E317D367E081E314D3D2
:1011A0006DE081E311D3DF91CF910895CF93C4E037
:1011B0006C2F8CE109D3CF5FCA30D1F7CDE164E069
:1011C0008C2F02D369E08C2FFFD2CF5FC232B9F7E8
:1011D00062E080E2F9D263E080E2F6D267E080E28A
:1011E000F3D268E080E2F0D262E081E2EDD263E027
:1011F00081E2EAD267E081E2E7D268E081E2E4D20C
:10120000C5E26CE08C2FE0D2CF5FCC32D1F769E041
:101210008AE2DAD26AE08AE2D7D26BE08AE2D4D2FA
:1012200069E08BE2D1D26AE08BE2CED26BE08BE256
:10123000CBD26DE086E2C8D26EE086E2C5D26FE026
:1012400087E2C2D26FE088E2BFD2CF9108956CE00E
:101250008AE1BAD26DE08AE1B7D26EE08AE1B4D217
:101260006AE08BE1B1D26BE08BE1AED26DE08BE155
:10127000ABD269E08CE1A8D26CE08CE1A5D269E048
:101280008DE1A2D26CE08DE19FD26AE08EE19CD22A
:101290006BE08EE199D26CE081E296D26DE081E262
:1012A00093D26EE081E290D26AE082E28DD26BE06E
:1012B00082E28AD26DE082E287D269E083E284D260
:1012C0006CE083E281D269E084E27ED26CE084E269
:1012D0007BD26AE085E278D26BE085E275C2089540
:1012E000CF93C2E267E08C2F6FD268E08C2F6CD274
:1012F000CF5FC133B9F7C3E06C2F85E265D26C2FA5
:1013000086E262D2CF5FC730B9F7C9E06C2F85E2C1
:101310005BD26C2F86E258D2CF5FCD30B9F7CF9138
:101320000895CF93C5E06C2F8BE14ED26C2F83E2F2
:101330004BD2CF5FCA30B9F7CAE167E08C2F44D2F5
:10134000CF5FC532D1F764E08CE13ED269E08CE139
:101350003BD264E08DE138D26AE08DE135D265E0C0
:101360008EE132D26AE08EE12FD266E08FE12CD29C
:1013700068E08FE129D264E080E226D269E080E271
:1013800023D264E081E220D26AE081E21DD265E0EE
:1013900082E21AD26AE082E217D2CF9108956BE01E
:1013A00088E112D26BE089E10FD26BE08AE10CD2C6
:1013B0006BE08EE109D26BE08FE106D26BE080E258
:1013C00003D267E08CE100D268E08CE1FDD169E0F6
:1013D0008CE1FAD16DE08CE1F7D16EE08CE1F4D1D3
:1013E0006FE08CE1F1D16AE08BE1EED16CE08BE152
:1013F000EBD16AE08DE1E8D16CE08DE1E5D167E009
:1014000081E3E2D167E082E3DFD167E083E3DCD10F
:1014100067E087E3D9D167E088E3D6D167E089E365
:10142000D3D163E085E3D0D164E085E3CDD165E03D
:1014300085E3CAD169E085E3C7D16AE085E3C4D119
:101440006BE085E3C1D166E084E3BED168E084E36C
:10145000BBD166E086E3B8D168E086E3B5D165E349
:1014600089E2B2D165E38AE2AFD165E38BE2ACD128
:1014700065E38FE2A9D165E380E3A6D165E381E36B
:10148000A3D161E38CE1A0D162E38CE19DD163E360
:101490008CE19AD167E38CE197D168E38CE194D138
:1014A00069E38CE191D164E38CE28ED166E38CE256
:1014B0008BD164E380E388D166E380E385C108953E
:1014C000181619065CF420E030E045E04A95F1F783
:1014D00000002F5F3F4F82179307B9F70895EF92EF
:1014E000FF920F931F93CF93DF937B0128EE33E09E
:1014F000AC01429FC001439F900D529F900D11245B
:101500003CD66115710581F08B01C5E6D0E088817C
:1015100080618883C701D4DF88818F7E8883C7017B
:10152000CFDF0150110999F7DF91CF911F910F91F2
:10153000FF90EF90089568EC70E08CE390E0CFDFCF
:1015400066E870E08CE390E0CACF08956BE871E044
:1015500084EB90E0C4CF089568EC70E08CE390E0F9
:10156000BEDF6FE970E08CE390E0B9CF089565E6E7
:1015700070E08CE390E0B3DF6AE570E084EB90E02C
:10158000AEDF60E570E08CE390E0A9DF6CE470E032
:1015900084EB90E0A4DF64E470E08CE390E09FDFF4
:1015A0006DE370E084EB90E09ADF66E370E08CE33B
:1015B00090E095DF63E370E084EB90E090CF0895D6
:1015C00068EC70E08CE390E08ADF6FE970E08CE318
:1015D00090E085DF66E870E08CE390E080DF65E610
:1015E00070E08CE390E07BCF089568EC70E08CE3D2
:1015F00090E075DF6FE970E08CE390E070CF0895C4
:101600001D9A95E39A95F1F700001C981E981F9A71
:101610008BBB85E38A95F1F700001D9808951D9A0C
:1016200095E39A95F1F700001C981E9A1F988BBBC2
:1016300085E38A95F1F700001D9808951D9A95E3BA
:101640009A95F1F700001C981E9A1F9A8BBB85E3B0
:101650008A95F1F700001D9808951D9A95E39A95D3
:10166000F1F700001C9A1E981F9A8BBB85E38A95A0
:10167000F1F700001D9808951D9A95E39A95F1F7EA
:1016800000001C9A1E9A1F988BBB85E38A95F1F780
:1016900000001D9808951D9A95E39A95F1F70000B2
:1016A0001C9A1E9A1F9A8BBB85E38A95F1F700005E
:1016B0001D980895CF93DF93D8EB8D2FBFDF80E483
:1016C000BDDFC0E480E0E7DFC150E1F7DF5FD03C81
:1016D000A1F7DF91CF9108958FE3B0DF80ECAEDF0B
:1016E00088EBACDF80E4AACF089580937605609301
:1016F00079098854A3DF809179098A3038F4982FCA
:10170000990F890F880F8C5B7BCF089590E00A9723
:10171000982F990F890F880F805C81CF08951F93B0
:10172000CF93DF9390E0EC01CC0FDD1FCC0FDD1FDA
:101730008C0F9D1FEC01CC59DF4F15E0809179098A
:101740008A3018F4888189DF02C0888195DF1150C2
:1017500021961111F3CF809179098A3018F480E035
:101760007CDF02C080E088DFDF91CF911F91089578
:10177000CF93DF93EA018093760560937909B5DF13
:101780008881882381F0809179098A3011F480E47E
:1017900046DF8991C4DF809179098F5F8093790951
:1017A00088818111F0CFDF91CF910895CF93C62F1B
:1017B000885444DFC03420F480E48C0F21DF02C061
:1017C0008C2F2DDFCF910895EF92FF920F931F93EF
:1017D000CF93803408F054C066230CF451C0282FF6
:1017E000269526952695982F977071F0913071F077
:1017F000923071F0933071F0943071F0953071F057
:10180000963071F090E80DC091E00BC092E009C0F5
:1018100094E007C098E005C090E103C090E201C0E9
:1018200090E4C62F022F10E0E62EF12CF801F69579
:10183000FE2FEE27F795E795E758FA4FEE0DFF1DBF
:101840008081982B9083822FB1DFC03468F4169585
:10185000102F00271795079507581A4FF801EE0D1E
:10186000FF1D8081FADE0CC01695102F00271795FA
:10187000079507581A4FF801EE0DFF1D8081FCDE19
:10188000CF911F910F91FF90EF900895EF92FF92EB
:101890001F93CF93DF93803408F055C066230CF478
:1018A00052C0282F269526952695982F977031F1AE
:1018B000913031F1923031F1933031F1943031F196
:1018C000953031F1963031F190E825C0D695DC2F76
:1018D000CC27D795C795C758DA4FCE0DDF1D888125
:1018E000BCDE31C0D695DC2FCC27D795C795C7581D
:1018F000DA4FCE0DDF1D8881BFDE25C091E00BC021
:1019000092E009C094E007C098E005C090E103C0F0
:1019100090E201C090E4162FC22FD0E0E62EF12C09
:10192000FE01F695FE2FEE27F795E795E758FA4F5B
:10193000EE0DFF1D9095808198239083822F36DFD6
:10194000103480F6C3CFDF91CF911F91FF90EF90BD
:1019500008959DEC899F912D1124969596959695C5
:10196000990F292F220F220F920F891B982F31F4E4
:10197000611104C080E2D3DE80E0089580E3890F26
:10198000CEDE81E008950F931F93CF93DF93AC01D8
:101990009C01329522952F7023273F702327A7E4BF
:1019A000B3E012D4EC01D695C795D695C795D695D8
:1019B000C79520E137E2C29FC001C39F900DD29F1F
:1019C000900D1124EA01C81BD90B9E01369527956D
:1019D0003695279536952795A5ECB0E2F5D38C0181
:1019E000129502950F7001271F70012760E0802F6C
:1019F000B0DF482F28EE33E0029FC001039F900D17
:101A0000129F900D1124C81BD90B9E013695279566
:101A100036952795ABE7B4E1D7D38C01169507959A
:101A2000642F802F96DF482F24E6209FC001219F3E
:101A3000900D1124C81BD90B9E01ADECBCECC4D396
:101A40008C01169507951695079516950795642FA1
:101A5000802F7FDFC801880F991F000F111F000F13
:101A6000111F000F111F080F191FCE01801B910BB2
:101A7000805D55DEDF91CF911F910F91089544E86D
:101A800053E060E080E074DE49E953E061E083E028
:101A90006FDE4DEA53E063E084E06ADE4DEB53E035
:101AA00060E087E065CE08954BEC53E06AE082E0A9
:101AB0005FDE46ED53E06AE083E05ADE41EE53E03C
:101AC0006AE084E055DE4BEE53E06AE085E050DEEC
:101AD00044EF53E06AE086E04BDE4DEF53E06AE00E
:101AE00087E046CE089548E054E060E080E040DEC4
:101AF0002FEF8DE292E2215080409040E1F700C04C
:101B000000004EE054E060E082E032DE4AE154E062
:101B100060E083E02DDE2FEF8DE292E221508040E5
:101B20009040E1F700C0000048E254E060E084E04B
:101B30001FDE42E354E060E085E01ADE2FEF8DE225
:101B400092E2215080409040E1F700C000004FE356
:101B500054E060E087E00CDE2FEF87EA91E6215049
:101B600080409040E1F700C00000A4DD48E454E06C
:101B700063E084E0FDDD2FEF87EA91E621508040AD
:101B80009040E1F700C0000095DD49E554E060E0D9
:101B900080E0EEDD2FEF8DE292E221508040904018
:101BA000E1F700C000004BE654E060E081E0E0DDDA
:101BB0002FEF8DE292E2215080409040E1F700C08B
:101BC000000008954CE754E060E083E0D1DD43E895
:101BD00054E060E084E0CCDD2FEF8DE292E2215012
:101BE00080409040E1F700C0000045E954E060E02B
:101BF00085E0BEDD41EA54E060E086E0B9DD2FEF2C
:101C000087EA91E6215080409040E1F700C0000053
:101C100051CD089541EB54E060E083E0A9DD2FEF62
:101C20008DE292E2215080409040E1F700C0000038
:101C300045E954E060E085E09BDD41EA54E060E086
:101C400086E096DD2FEF87EA91E6215080409040B4
:101C5000E1F700C000002ECD089543EC54E060E0B1
:101C600083E086DD2FEF8DE292E2215080409040AC
:101C7000E1F700C0000045E954E060E085E078DD70
:101C800041EA54E060E086E073DD2FEF87EA91E6F9
:101C9000215080409040E1F700C000000BCD089536
:101CA00047ED54E060E083E063DD2FEF8DE292E2E8
:101CB000215080409040E1F700C0000045E954E029
:101CC00060E085E055DD41EA54E060E086E050DD0B
:101CD0002FEF87EA91E6215080409040E1F700C065
:101CE0000000E8CC089548EE54E06AE082E040DD70
:101CF00048EE54E06AE084E03BDD48EE54E06AE000
:101D000085E036DD48EE54E06AE086E031DD48EEFD
:101D100054E06AE087E02CCD089548EE54E06AE094
:101D200082E026DD48EE54E06AE083E021DD48EE03
:101D300054E06AE085E01CDD48EE54E06AE086E0AD
:101D400017DD48EE54E06AE087E012CD089548EED2
:101D500054E06AE082E00CDD48EE54E06AE083E0A3
:101D600007DD48EE54E06AE084E002DD48EE54E02E
:101D70006AE086E0FDDC48EE54E06AE087E0F8CCFB
:101D8000089548EE54E06AE082E0F2DC48EE54E068
:101D90006AE083E0EDDC48EE54E06AE084E0E8DCF1
:101DA00048EE54E06AE085E0E3DC48EE54E06AE0A7
:101DB00087E0DECC089548EE54E06AE082E0D8DCAB
:101DC00048EE54E06AE083E0D3DC48EE54E06AE099
:101DD00084E0CEDC48EE54E06AE085E0C9DC48EE01
:101DE00054E06AE086E0C4CC08950E9439040E9461
:101DF0004D060E9413050C94740608950E94390440
:101E00000E9413050E944D060E94AA0637C9089534
:101E10000E9439040E9402060E94670668D8C6C95B
:101E200008950E9439040E947F050E945A060E946C
:101E30000C070DCA08950E9439040E9402060E94F0
:101E400067069FD84DCA08950E9439040E947F05F5
:101E50000E945A06CCD865CA0895B4DE0E9439049F
:101E60000E940C070E945A060E947F0598DA2FEF05
:101E70008DE292E2215080409040E1F700C00000E6
:101E800043EF54E064E081E073DC2FEF8DE292E2F7
:101E9000215080409040E1F700C000004FEF54E037
:101EA0006AE083E065DC48E055E06AE084E060DCFD
:101EB0002FEF87EA91E6215080409040E1F700C083
:101EC0000000F8DB7DCB0895EBDE0E9439040E9410
:101ED000AA060E944D060E9413052FEF8DE292E2A2
:101EE000215080409040E1F700C0000043EF54E0F3
:101EF00064E081E03DDC2FEF8DE292E221508040F2
:101F00009040E1F700C000004FEF52E06AE083E04C
:101F10002FDC45EE54E06DE084E02ADC2FEF87EA09
:101F200091E6215080409040E1F700C00000C2DB04
:101F30000DCB08956FDE75DF2FEF8DE292E2215019
:101F400080409040E1F700C0000043EF54E064E0BF
:101F500081E00EDC2FEF8DE292E221508040904034
:101F6000E1F700C000004DEE53E06AE083E000DCE2
:101F700043E155E06AE084E0FBDB2FEF87EA91E67E
:101F8000215080409040E1F700C0000093DB18CB67
:101F9000089540DE59DF2FEF8DE292E2215080401C
:101FA0009040E1F700C0000043EF54E064E081E0BE
:101FB000DFDB2FEF8DE292E2215080409040E1F78D
:101FC00000C000004CE155E06AE083E0D1DB2FEF78
:101FD0008DE292E2215080409040E1F700C0000085
:101FE00045E255E06AE085E0C3DB4CE255E06AE09B
:101FF00086E0BEDB2FEF87EA91E6215080409040DB
:10200000E1F700C0000056DBA1CA089503DE00DF3F
:102010002FEF8DE292E2215080409040E1F700C026
:10202000000043E355E064E081E0A2DB2FEF8DE2A6
:1020300092E2215080409040E1F700C0000040E46F
:1020400055E06AE083E094DB2FEF87EA91E62150C8
:1020500080409040E1F700C000002CDBB1CA089539
:102060001FDECCDE2FEF8DE292E2215080409040C7
:10207000E1F700C0000043EF54E064E081E078DB6A
:102080002FEF8DE292E2215080409040E1F700C0B6
:10209000000049E455E06AE083E06ADB43E353E093
:1020A0006AE084E065DB45EE54E06DE085E060DBEE
:1020B0002FEF87EA91E6215080409040E1F700C081
:1020C0000000F8DA43CA0895C8DDB5DE2FEF8DE2CF
:1020D00092E2215080409040E1F700C0000043EFC1
:1020E00054E064E081E044DB2FEF8DE292E2215086
:1020F00080409040E1F700C000004DE353E06AE00B
:1021000083E036DB2FEF87EA91E621508040904054
:10211000E1F700C00000CEDA68CA08959EDD65DEF2
:102120002FEF8DE292E2215080409040E1F700C015
:10213000000043EF54E064E081E01ADB2FEF8DE212
:1021400092E2215080409040E1F700C0000042E55B
:1021500055E06AE083E00CDB4BE453E06AE084E0A6
:1021600007DB2FEF87EA91E6215080409040E1F7AE
:1021700000C000009FDA39CA0895AA1BBB1B51E1B9
:1021800007C0AA1FBB1FA617B70710F0A61BB70BE7
:10219000881F991F5A95A9F780959095BC01CD018C
:1021A000089597FB072E16F4009406D077FD08D00B
:1021B000E4DF07FC05D03EF4909581959F4F08958C
:1021C000709561957F4F0895A29FB001B39FC001A4
:1021D000A39F700D811D1124911DB29F700D811D53
:1021E0001124911D08958F929F92AF92BF92CF922A
:1021F000DF92EF92FF92CF93DF93EC0168817981B8
:102200008A819B81611571058105910521F464E244
:1022100079ED8BE597E02DE133EF41E050E038D0E8
:1022200049015A019B01AC01A7EAB1E44DD06B0111
:102230007C01ACEEB4EFA501940152D0DC01CB01DE
:102240008C0D9D1DAE1DBF1DB7FF03C00197A109D9
:10225000B04888839983AA83BB839F77DF91CF910E
:10226000FF90EF90DF90CF90BF90AF909F908F90B6
:102270000895B9CF80E091E0B6CFA0E0B0E08093C0
:10228000000190930101A0930201B093030108950E
:10229000052E97FB16F400940FD057FD05D024D0DF
:1022A00007FC02D046F408C0509540953095219522
:1022B0003F4F4F4F5F4F0895909580957095619572
:1022C0007F4F8F4F9F4F08957FDFA59F900DB49F45
:1022D000900DA49F800D911D11240895B7FFF4CF98
:1022E000F3DF821B930B0895A1E21A2EAA1BBB1BDE
:1022F000FD010DC0AA1FBB1FEE1FFF1FA217B307D2
:10230000E407F50720F0A21BB30BE40BF50B661FE7
:10231000771F881F991F1A9469F7609570958095AB
:1023200090959B01AC01BD01CF010895F894FFCFBA
:1023300001000000000000000000004F0000000746
:10234000000700147F147F14242A7F2A1223130805
:10235000646236495522500005030000001C2241EA
:10236000000041221C0014083E081408083E08081A
:1023700000503000000808080808006060000020D5
:10238000100804023E5149453E00427F4000426130
:102390005149462141454B311814127F10274545BC
:1023A00045393C4A494930017109050336494949D3
:1023B00036064949291E0036360000005636000010
:1023C00008142241001414141414004122140802A9
:1023D00001510906324979413E7E1111117E7F4932
:1023E0004949363E414141227F4141221C7F4949B2
:1023F00049417F090909013E4149497A7F08080896
:102400007F00417F41002040413F017F081422416D
:102410007F404040407F020C027F7F0408107F3ED7
:102420004141413E7F090909063E4151215E7F0934
:10243000192946264949493201017F01013F40409F
:10244000403F1F2040201F3F4038403F6314081486
:102450006307087008076151494543007F41410007
:1024600002040810200041417F00040201020440E0
:1024700040404040000102040020545454787F48FA
:102480004444383844444420384444487F38545401
:102490005418087E0901020C5252523E7F0804046F
:1024A0007800047D00002040443D007F1028440057
:1024B00000417F40007C0418047C7C0804047838C8
:1024C000444444387C14141408081414187C7C0800
:1024D0000404084854545420043F4440203C4040E5
:1024E000207C1C2040201C3C4030403C44281028CC
:1024F000440C5050503C4464544C44000836410055
:102500000000770000004136080008040810082D7C
:10251000203F3F3F3F3F3F002D2052554C4552202A
:102520004F4620544845204541525448002D2050E4
:10253000415449454E54002D2053504F525453207E
:10254000414444494354002D2047414D424C45529B
:10255000002D2049444F4C002D2047524144554105
:1025600054452053545544454E54002D20434C456A
:10257000524943002D204A55535420434954495A47
:10258000454E003C3C005352543A2000494E543AC8
:1025900020004D4F523A200053454E3A20003D3D19
:1025A0003D3D3D3D2054484520454E44203D3D3D68
:1025B0003D3D3D00202A2053545544454E54202093
:1025C0004D414B4552202A20003C55503E20746F0F
:1025D00020454E44494E47204C495354003C444FFB
:1025E000574E3E20746F205354415254006D616425
:1025F000652062792053756D696E00546F2D646F8C
:10260000206C69737400312E5354554459494E4718
:1026100000322E53494E47494E4700332E53504FF8
:1026200052545300342E43485552434800352E47E8
:10263000414D424C494E4700446179203900467271
:102640006F6D20546F6461792C0049206C65617650
:102650006520686F6D6521005468616E6B7320742E
:102660006F004272696E67206D652075702E0042A2
:1026700079652042796521003220596561727320A5
:102680004C617465722E2E2E004C4F4E47205449DB
:102690004D45204E4F205345452100486F77206916
:1026A0007320697420676F696E673F0049206C6909
:1026B000766500574F4E44455246554C204C49468E
:1026C0004520584400446F20796F75206B6E6F77FA
:1026D00000576861742049276D20646F696E673FF9
:1026E0000049276D20646F696E672046696E65201A
:1026F0003A440049206C69766520612071756974DF
:1027000065206C6966650049276D20646F696E6796
:1027100020424144203A2800202020202020202050
:102720002020004E6F772C204920616D20610052DF
:10273000554C4552204F460054484520454152547F
:1027400048210041444449435421210047414D421E
:102750004C4552210049206C6F7665004D4F4E4527
:102760005921004E6F772C204920616D20616E0049
:1027700049444F4C212121210047524144554154A5
:0827800045004A5553540000C6
:00000001FF
